:020000040800F2
:10000000A0160020D5000008DD000008DF00000871
:1000100000000000000000000000000000000000E0
:10002000000000000000000000000000E1000008E7
:100030000000000000000000E3000008812E00081E
:10004000E700000800000000E7000008E7000008E3
:10005000E7000008E7000008E7000008E7000008E4
:1000600000000000E7000008E7000008E7000008C3
:10007000E7000008E7000008E700000800000000B3
:10008000E7000008E7000008E7000008552F000817
:10009000E7000008E7000008E7000008E7000008A4
:1000A000E7000008E7000008E7000008E700000894
:1000B000E7000008E700000800000000F53F000826
:1000C0000348854600F0FEF800480047015000084C
:1000D000A01600200448804704480047FEE7FEE7DA
:1000E000FEE7FEE7FEE7FEE7F12E0008C10000088C
:1000F00030B50B46014600202022012409E00D46C0
:10010000D5409D4205D31D469540491B2546954047
:1001100040191546521E002DF1DC30BD10B5202AC5
:1001200004DB0846203AD040002110BD0B46D340E6
:10013000D0402024A21A91400843194610BD014620
:100140006139192900D82038704703460B439B07B3
:1001500003D009E008C9121F08C0042AFAD203E03C
:100160000B780370401C491C521EF9D2704710B521
:10017000044605E00B780370401C002B00D0491C9E
:10018000521EF7D2204610BDCAB2401E4178401C14
:100190008A4202D00029F9D100207047421C017820
:1001A000401C0029FBD1801A704710B5002200E0E6
:1001B000521C835C8C5CA34201D1002BF8D1D8B2D5
:1001C000E1B2401A10BD03460A780270401C491C77
:1001D000002AF9D11846704770B5064603F05EFF55
:1001E000046805460A220021304600F033F82C60EE
:1001F00070BDF0B51FB40646002082B0054640240D
:10020000019100901BE0019922460F463046FFF70E
:1002100085FF049A059B801A994110D31046194610
:10022000224600F061F8361A8F41019722460120DC
:100230000021009F00F058F838184D4100902046EA
:10024000641E0028DFDC019B00982946324607B077
:10025000F0BD0000F7B5009C0F4600262578641C11
:10026000002D05D000F050F80068405DC007F5D1C2
:100270002B2D02D02D2D18D0641E39462046029A0F
:1002800000F046F8002F04D03968A14201D100994E
:1002900039607105022400290BDA4042002803DD91
:1002A00003F0FCFE0460A007FEBD012080020643AF
:1002B000E3E70028F8DA03F0F1FE04600048FEBD31
:1002C000FFFFFF7F064C0125064E05E0E36807CCE3
:1002D0002B430C3C98471034B442F7D3FFF7F4FE9D
:1002E0000C5400082C54000810B5202A04DB0146E9
:1002F000203A9140002010BD914020239C1A0346D3
:10030000E3401943904010BD00487047B8530008BF
:10031000F7B582B0029C00272078641C154601972F
:10032000302802D0002D15D015E020780127641C5C
:10033000782804D0582802D0002D09D00BE0002DD9
:1003400001D0102D07D1002710252078641C02E071
:10035000082500E00A250026009610E000990127F4
:1003600069430818020C294680B2714300908E1828
:100370003804864201D3012001902078641C29466C
:1003800000F019F80028E9DA0398002805D0002FBA
:1003900001D0641E00E0029C04600198002806D091
:1003A00003F07CFE02210160C81E05B0F0BD00997B
:1003B00030040843F9E73A2800D2303820230246B7
:1003C0009A43412A01D310463738884201D300208E
:1003D000C043704770B58C180578401C6B075B0FE5
:1003E00001D10378401C2A1106D10278401C03E099
:1003F00006780E70401C491C5B1EF9D12B0705D4F2
:100400000023521E0DD40B70491CFAE70378401CE0
:10041000CB1A921C03E01D780D70491C5B1C521E08
:10042000F9D5A142D8D3002070BD00000FB470B53B
:100430008EB010A8867D002000F070F810A8808A89
:10044000642801D2012100E000212F4A904201D905
:10045000012000E000202D4A014301D010A8828233
:1004600010A8807C002804D00021642802D9012033
:1004700001E001210020014302D0322010A988743C
:10048000244C23482060302060600025A56010A81F
:10049000818A002905D02048FFF72AFE80B2E0605B
:1004A00000E0E26025611B4801F070FE01200003BE
:1004B0000A900AA9174801F0C8FE164802F06FF822
:1004C0000895099508A9134801F03AFE60200190AB
:1004D00010A8807C002806D0E268C8215043FFF7AE
:1004E00007FE029000E0029503950595002201A900
:1004F000084801F0E5FF304600F010F80EB070BC7F
:1005000008BC04B01847000010270000E8030000F2
:10051000000400408002002040420F0010B5084C4B
:10052000002806D00021074802F056F80120A073E9
:1005300010BD0021034802F071F80020A07310BD27
:100540001C0200208002002000207047002070471D
:1005500010B5084C0648FF2201320749606002F0DE
:1005600083FF0649606802F075FF002010BD00009F
:1005700038060020580100203805002038040020EB
:1005800070B506460D46094802F03BFF288881B247
:10059000304600F00DF8002403E0305D04F070FDFB
:1005A000641C2868A042F8D8002070BD38060020DE
:1005B00010B50A46044C0146606802F055FF6068B9
:1005C00002F09CFF10BD00005801002030B589B03A
:1005D000044623464BA22021684603F049FD6846A5
:1005E000FFF7DCFD0146684603F00CFDA37A47A245
:1005F0002021684603F03CFD6846FFF7CFFD014629
:10060000684603F0FFFCA38943A22021684603F05B
:100610002FFD6846FFF7C2FD0146684603F0F2FC75
:10062000E37B40A22021684603F022FD6846FFF7E5
:10063000B5FD0146684603F0E5FC3DA22021684671
:10064000236D03F015FD6846FFF7A8FD01466846D7
:1006500003F0D8FC39A22021684603F009FD684662
:10066000FFF79CFD0146684603F0CCFC20461030A5
:100670000546FFF793FD0146284603F0C3FC32A26E
:100680002021684603F0F4FC6846FFF787FD014629
:10069000684603F0B7FC4034237F2CA22021684633
:1006A00003F0E6FC6846FFF779FD0146684603F073
:1006B000A9FC637F28A22021684603F0D9FC684684
:1006C000FFF76CFD0146684603F09CFCA07F002804
:1006D00015D0012804D123A22021684603F0C8FCCC
:1006E000A07F022804D121A22021684603F0C0FC8B
:1006F0006846FFF753FD0146684603F083FC09B0E6
:1007000030BD0000253873202D20000020612E56BA
:100710003D2564252520000020612E663D25644886
:100720007A20000020612E63773D256420000000C0
:1007300043572E743D25646D732000002043572ECF
:100740006D7367203A27000027200000204F757442
:100750002E703D2564200000204F75742E63773D78
:1007600025642000204152212000000020534152E6
:100770002120000006490020C861064801690422C2
:10078000114301610169402211430161704700007A
:100790001803002000200240064A0021D1610649CA
:1007A0000A6902231A430A6148610869402210431A
:1007B00008617047180300200020024010B4054B68
:1007C0000022DA61044A1369012423431361018082
:1007D00010BC704718030020002002400949C86877
:1007E000C206094803D5C26902231A43C261CA6816
:1007F000520703D5C26901231A43C2611420C8609D
:1008000070470000002002401803002070B5044625
:1008100000F000FA0546114EF068C0070DD0601CCC
:1008200008D0002C04D000F0F5F9401BA04201D9FB
:10083000032070BDF068C007F1D1F068800601D5D3
:100840002020F060F068C00602D4F068400703D5AD
:10085000FFF7C4FF012070BD002070BD00200240E2
:1008600001480078704700002C01002031B500F0ED
:10087000D1F9044600F0CEF90099001B8842F9D363
:1008800038BD0000F8B505460F4601262448017E14
:1008900001290BD0012101762868224C012807D0BC
:1008A0002046FFF7B3FF002813D034E00220F8BD44
:1008B0002046FFF7ABFF00282DD1FFF75BFF204656
:1008C000FFF7A4FF0646184908690422904308610F
:1008D00021E00020C04338606C68A86880022018BE
:1008E000A04218D92046FFF757FF0E48FFF78EFFAA
:1008F00006460D480169022291430161300001D092
:100900003C6008E0012080022418A9686868890218
:100910004018A042E6D80248002101763046F8BDD2
:100920001803002050C30000002002400348016962
:100930008022114301610020704700000020024026
:10094000F0B51FB4074615461E4600241C48017E1C
:10095000012907D0012101761A48FFF757FF002827
:1009600003D027E0022005B0F0BD012F1AD0022FDE
:100970001AD00427002F1DD9220128463146FFF73F
:10098000CDFB81B2019862001018FFF717FF0D48E8
:10099000FFF73CFF0C490A69520852000A6100281F
:1009A00008D103E00127E5E70227E3E7641CE4B28E
:1009B000BC42E1D3024900220A7605B0F0BD000036
:1009C0001803002050C300000020024005480169C0
:1009D000090605D50449416004494160002070477B
:1009E000012070470020024023016745AB89EFCD0D
:1009F000F0B50022002954D0012393409C460B40BF
:100A0000002B4AD0056856000324B440A543056076
:100A1000D508AD002D182E6AAE465507EF0E0F25EE
:100A2000BD40AE4375462E628568A5438560456826
:100A30006646B5434560C568A543C5609508194C31
:100A4000AD002D19AC689607370F0F26BE40344015
:100A5000A4460924E406A04201D100240AE0124C75
:100A6000A04201D1012405E0104CA04201D1022492
:100A700000E00524BC4064450FD1AC68B443AC60D1
:100A80000B4C25689D43256065689D436560A5689E
:100A90009D43A560E5689D43E560521C0B46D3402D
:100AA000AAD1F0BD00000140000400480008004841
:100AB00000040140F8B400220B68002B7ED0012412
:100AC00094400B68A4462340002B78D04C68022C3D
:100AD00001D0122C0CD1D408A40027183D6A540769
:100AE000E40E0F26A640B5430E69A6402E433E6293
:100AF000066855000324AC40A6430F79BF07BF0F1B
:100B0000AF40374307604E68012E05D0022E03D058
:100B1000112E01D0122E0ED18768A743CE68AE40A9
:100B20003E43866047686646B7430E79F606F60F81
:100B300096403E434660C668A6438C68AC4034434A
:100B4000C4604C68E40045D5264CA56901263543B0
:100B5000A561A469344000949508234CAD002E197A
:100B6000B5689407240F0F27A740BD430927FF0648
:100B7000B84201D100270AE01C4FB84201D1012739
:100B800005E01B4FB84201D1022700E00527A7402E
:100B90002F43B760174D2C689C434E68F60300D571
:100BA0001C432C606C689C434E68B60300D51C4304
:100BB0006C60AC689C434E68F60201E00FE009E00F
:100BC00000D51C43AC60EC689C434E68B60200D56F
:100BD0001C43EC60521C0B68D34000D06FE7F8BC9C
:100BE000704700000010024000000140000400486F
:100BF00000080048000401400069084201D00120BB
:100C0000704700207047002A01D0816170478162DF
:100C10007047000001480068704700003C01002058
:100C200002480168491C0160704700003C01002037
:100C300010B506480168102211430160002000F041
:100C400007F800F017F8002010BD00000020024057
:100C500010B5044600F090FF7D21C900FFF748FA67
:100C600001F04AFA00222146501E00F025F800202B
:100C700010BD000008B50948816901221143816156
:100C800080691040009000221146501E00F014F8B8
:100C90000348016810221143016008BD00100240A2
:100CA00000000140C106C90E0120884001490860CA
:100CB0007047000000E100E08207D30EFF229A4057
:100CC0008907090E994000280BDA0007000F083841
:100CD000830808489B001818C36993430B43C361FA
:100CE0007047830804489B001818036893430B431C
:100CF0000360704700ED00E000E400E010B40C0673
:100D000006D54906490E1C2461430818283004E022
:100D10001C2461430818FF30093099B2002A07D01B
:100D200001228272C180190C018110BC0020704721
:100D3000002282728180F8E71C224A43121810B503
:100D4000FF30FF300230926BC06902F0FEFD10BD33
:100D50001C224A43121810B5FF30FF32FF30013217
:100D600002309269C06902F058FE10BDF0B44A0624
:100D7000520E13461C256A43CC091218002C01D0D0
:100D8000283201E0FF3209321370C909517003465D
:100D9000FF33E133197A01293BD001211972947A8A
:100DA0004C49002C38D05478002C62D01578046857
:100DB000AD00665B760404D5665B474F0E403E434C
:100DC000665315780468AD00665B760604D5665BED
:100DD000424F0E403E43665315780468AD00665B93
:100DE0000E403D490E43665314780168A4000E5B23
:100DF0003B4D2E403B4D2E430E5311780068890029
:100E0000425A394C22402A43425200201872F0BC08
:100E10007047F0BC022070475478002C14D015782D
:100E20000468AD00665B760604D5665B0E402B4910
:100E30000E436653117800688900425A284C2240BC
:100E4000284C22434252E0E715780468AD00665B07
:100E5000760404D5665B0E401F490E436653117835
:100E600000688900425A204C22401E4C22434252C4
:100E7000CBE715780468AD00665B760404D5665B45
:100E8000154F0E403E43665315780468AD00665B0F
:100E9000760604D5665B114F0E403E4366531578C7
:100EA0000468AD00665B0E400C490E43665314782F
:100EB0000168A4000E5B0C4D2E400A4D2E430E53CC
:100EC000117800688900425A054C22402A43425258
:100ED0009BE700008F8F000080C00000C0800000F2
:100EE000BF8F0000808000008FBF0000F0B44B0671
:100EF000CA095B0E002A04D01C225A431218283259
:100F000004E01C224A431218FF3209320024947074
:100F10001370C90951700146FF31E1310B7A012B81
:100F20001ED001230B7253781D4D1E4E002B1AD07C
:100F300014780368A4001F5B7F0604D51F5B2F4055
:100F4000194D2F431F53127800689200835A174C93
:100F500023401024634020246340334383521AE02B
:100F6000F0BC0220704714780368A4001F5B7F0464
:100F700004D51F5B2F400E4D2F431F53127800687E
:100F80009200835A0B4C23400124240363406400E5
:100F900063403343835200200872F0BC7047000066
:100FA0008F8F000080800000C0800000BF8F000095
:100FB00080C000008FBF00004906490E1C2251432B
:100FC0000818FF300130008C80B27047F0B44D0635
:100FD0006D0E1C246C43CE092418002E01D0283439
:100FE00001E0FF3409342570C9096170E260E370E3
:100FF0000246FF32E132117A01290CD0012111722F
:10100000E1789D4D002909D0012922D002290FD075
:10101000032927D113E0F0BC022070472378016830
:101020009B00CE5A2E40FF36FF360236CE5219E0D4
:10103000237801689B00CE5A2E40CE5212E02378CE
:1010400001689B00CE5A2E4003256D027519CD52C2
:1010500008E0237801689B00CE5A2E400125AD029E
:101060007519CD5225780168AB00CF5A834E3740B1
:10107000834E37432F43CF52A17A002959D021788C
:1010800003688D005F5BFF2101310F437B490F40F7
:1010900037435F53E38850265D0803686D00F65AB6
:1010A000F6182378DF0001239B02FB18F5522389F1
:1010B00050265D0803686D00F65AF6182378DF00A5
:1010C000704BFB18F5526378002B7DD025780368B0
:1010D000AD005E5B760404D55E5B6B4F0E403E4315
:1010E0005E5325780368AD005E5B760604D55E5BD3
:1010F000664F0E403E435E5325780368AD005E5B4D
:101100000E4061490E435E53237801689B00CE5A1E
:101110005F4D2E405A4D2E43CE52217800688900F3
:10112000435A5C4C23402B43435200201072F0BCC6
:1011300070476178002923D0A18850254B080168A9
:101140005B006D5A6D182178CF0001218902791852
:101150006B52237801689B00CD5A6D0605D5CD5A98
:10116000464F3D40494F3D43CD52217800688900AC
:10117000435A474C23402024634033434352D4E72F
:10118000A18850254B0801685B006D5A6D182178C5
:10119000CF003C4979186B52016850235B5A3E4D91
:1011A00059182378DB005B19CD18E1683E290CD96A
:1011B000CB021B0CC90601D15B1E9BB29902012315
:1011C000DB031943298008E021E0CB031B0CC9078E
:1011D00001D05B1C9BB299022980237801689B0097
:1011E000CD5A6D0405D5CD5A244F3D40264F3D4381
:1011F000CD52217800688900435A264C23400124AF
:101200002403634064006340334343528DE72578F1
:101210000368AD005E5B760404D55E5B1A4F0E403A
:101220003E435E5325780368AD005E5B760604D5C9
:101230005E5B164F0E403E435E5325780368AD005B
:101240005E5B0E4011490E435E53237801689B009C
:10125000CE5A104D2E4001252D036E406D006E407C
:10126000074D2E43CE52217800688900435A084C1E
:1012700023402B43435258E78F8900008F8F000093
:10128000808000000404000080C00000C0800000D6
:10129000BF8F00008FBF000006040000F0B44C06B2
:1012A000640E1C2161430918FF3109310A614B6149
:1012B00000258D614D700C700446FF34E134227AB4
:1012C000012A08D0012222724B69CA68934205D9CB
:1012D0009B1A4B6104E0F0BC022070471A464D6136
:1012E0008B7A314E002B05D04B78002B21D0012B6F
:1012F0003ED046E003685027FF5AFB180F78FF00E6
:10130000BE199E193E2A0BD9D3021B0CD20601D15D
:101310005B1E9BB29A020123DB031A43328030E04A
:10132000D3031B0CD20701D05B1C9BB29A02328004
:1013300027E003685027FF5AFB180F78FF00BE19FB
:101340009E193E2A0BD9D3021B0CD20601D15B1E7B
:101350009BB29A020123DB031A43328011E0D303CC
:101360001B0CD20701D05B1C9BB29A02328008E0B2
:1013700003685026F65A0D4FF3180E78F600F6194A
:101380009A53097800688900425A094B1A40012390
:101390001B035A405B005A40064B1A4342522572C7
:1013A000F0BC0020704700000604000002040000AA
:1013B0008FBF000080800000F0B40346FF33E133AC
:1013C0001A7A012A0BD001241C724A06CD09520E4A
:1013D000002D07D01C2555432D18283507E0F0BCFB
:1013E000022070471C254D432D18FF350935AC7080
:1013F0002A70CC096C70012636031027114D002A83
:101400000BD04906C90D002C10D00068425A0E4C72
:1014100022407A402A4342520FE0006801880B4A7A
:101420001140714079402943018006E00068425A2A
:10143000074C224072402A43425200201872F0BCEE
:101440007047000080800000BF8F0000BFBF000019
:101450008FBF0000F0B506464806400E1C214143F0
:101460008C192834226163610021A161012161701E
:1014700020703746FF37E137387A012807D03972B4
:10148000E5686069A84204D9401B606104E002205D
:10149000F0BD054600206061A07A00280CD02178BC
:1014A00030688A00825A5306494A3AD56378002B3D
:1014B00012D0012B2CD032E0ABB2A2882169306867
:1014C00001F0C8FC30685021095A09182078C20080
:1014D000404810180D526BE050231B5AC9001818D1
:1014E0003D4BC91841183E2D09D9E802000CEB0606
:1014F00001D1401E80B28002104308800FE0E80353
:10150000000CEA0701D0401C80B28002088006E08F
:101510005022125A1018CA002E49511845522289D9
:1015200029E06378002B02D0012B1CD022E050234D
:101530001B5A1818CB002749591841183E2D09D9B4
:10154000E802000CEB0601D1401E80B2800210437D
:1015500008800FE0E803000CEA0701D0401C80B2CD
:101560008002088006E05022125A1018CA00194959
:1015700051184552E288ABB22169306801F06AFC2B
:101580006078164A002802D0012809D010E021789E
:1015900030688900435A1340114A1343435207E00D
:1015A000217830688900435A13400E4A134343524E
:1015B0002078316880000A5A0B4B1A4010235A4099
:1015C00020235A40094B1A430A5200203872F0BDBA
:1015D0000080000002040000060400008F8F00005D
:1015E000C080000080C00000BF8F0000808000002D
:1015F00070B50446206840308088C00B02D0204679
:1016000001F056FA20684030818849050BD5818861
:101610000122920291438180204600F0D3F80021FC
:10162000204600F0F9F8206840308188490404D54C
:101630008188012292039143818020684030818813
:10164000890404D581880122520391438180206856
:10165000403081880425C904002910DA0188A94393
:101660000180BD200002216840310880204600F042
:10167000B5F8206840308188AA02914381802068B3
:1016800040308188090518D581880122D202914312
:101690008180206840300188082211430180206841
:1016A0004030018829430180206840308088C04351
:1016B000C00402D5204600F0D9F820684030818867
:1016C000890507D5818801225202914381802046F5
:1016D00000F09AF8206840308188C90504D58188D7
:1016E000FF2201329143818070BDF8B50446002588
:1016F000002C07D02646FF36E136707A00270028F6
:1017000002D005E00120F8BD3772204600F03EF817
:10171000032070726068012200280ED91C206843E3
:101720000019014620314A720D72CF7247638763F8
:10173000C7636D1C6068A842F0D80021606800286B
:101740000ED91C2048430019FF3001304772017246
:10175000C77247618761C761491C60688842F0D8D9
:101760002068403002802068403007802068403088
:101770008780206840300782BD2000022168403108
:1017800008802034277172720020F8BD08B5006807
:101790000A49884210D10A48C2690121C9050A4391
:1017A000C261C06900220840009011461F20FFF767
:1017B00083FA1F20FFF776FA08BD0000005C0040A6
:1017C0000010024010B5C41DFF34FA340121E06955
:1017D00002F006FAE06902F0CAF910BD10B504463D
:1017E0008069002806D007480169062291430161FB
:1017F00001F04CFBFF34FF340234E06902F0DBF906
:1018000010BD000000ED00E0FF3010B5FF300230E9
:10181000C06902F0D6F910BD0246FF32E132137AF8
:10182000012B08D001231372002906D0203001714A
:1018300000201072704702207047006880214030FD
:101840008181F5E710B5872189000A580146FF31EB
:10185000ED31104602F0D0F910BD00684030018B28
:101860000122D203114301830020704710B50446C2
:10187000FF30FF300230C06902F0FFF9A069002894
:1018800004D00348016906221143016110BD000024
:1018900000ED00E0F8B504462068344DC00348D59B
:1018A000296A03200002626801400240914240D050
:1018B000E96928040143E961E969014000912C4F7D
:1018C0003868A91508433860FFF7A4F90646386858
:1018D000C00509D4FFF79EF9801B642801D90320B5
:1018E000F8BD3868C005F5D5286A03273F02B8431C
:1018F000296A0122120411432962296A914329624B
:101900002862800710D5FFF785F90646286A800708
:101910000AD4FFF77FF9811B1648814201D90320C1
:10192000F8BD286A8007F4D5286A6168B84308437F
:1019300028622078C00705D0286BA1688008800045
:10194000084328632078800605D5286B102188433A
:10195000E168084328632068800305D5286B80214F
:1019600088432169084328630020F8BD0010024025
:101970000070004088130000F8B504460F467B480D
:101980000068F022C007C00F794EB84270D2774885
:10199000016849084900394301600068C007C00F69
:1019A000B84201D00120F8BD2078800704D57068C6
:1019B000A1689043084370602078C00751D06068E8
:1019C000012806D0022809D0316889070BD40120EC
:1019D000F8BD3168890306D40120F8BD316889015A
:1019E00001D40120F8BD7168890889000143716044
:1019F000FFF710F90546606801280DD002281ED0B7
:101A000070680007800F2CD05A4FFFF703F9401B76
:101A1000B84227D90320F8BD70680007800F01285D
:101A20001FD0544FFFF7F6F8401BB84201D90320EE
:101A3000F8BD70680007800F0128F3D187E0706857
:101A40000007800F02280CD04A4FFFF7E3F8401B35
:101A5000B84201D90320F8BD70680007800F022842
:101A6000F3D174E070680007800FCED16FE0FFE71C
:101A70002078800704D57068A1689043084370609F
:101A80002078C00756D06068012806D0022809D007
:101A9000316889070BD40120F8BD3168890306D469
:101AA0000120F8BD3168890101D40120F8BD7168B9
:101AB0008908890001437160FFF7ACF8054660684A
:101AC00001280DD002281ED070680007800F31D089
:101AD000FFF7A0F8411B2748814227D90320F8BD12
:101AE00070680007800F012824D0FFF793F8411B8E
:101AF0002048814201D90320F8BD70680007800F9B
:101B00000128F2D116E070680007800F022811D07A
:101B1000FFF780F8411B1748814201D90320F8BD27
:101B200070680007800F0228F2D103E07068000798
:101B3000800FCDD10D480168490849003943016043
:101B40000068C007C00FB84201D00120F8BD20785E
:101B5000400706D57068072109028843E1680843F9
:101B600070600020FFF774F80020F8BD00200240EC
:101B7000001002408813000010B500F011F805496C
:101B80004968054A0906090F515CC84003490860C5
:101B900010BD00000010024024530008180100206E
:101BA00010B588B019A0436882680168C0680593C1
:101BB00006920491079019A0836842680168C06882
:101BC0000293019200910390184B5A680C20114621
:101BD00001401748042911D008290FD19102090F9B
:101BE00004AC645CD96A6B460907090F595CD203DF
:101BF000920F022A04D0FEF77BFA604308B010BDB2
:101C0000FEF776FA604308B010BD00000203040539
:101C1000060708090A0B0C0D0E0F10100102030431
:101C200005060708090A0B0C0D0E0F1000100240E4
:101C300000127A00F0B583B004462078FE4EFF4DC6
:101C4000C0077DD068680007800F012821D0686830
:101C50000007800F022804D16868C003800F0228A3
:101C600017D0286801273F04B84328602868B900C6
:101C700088432860FEF7CEFF02902868800314D5C1
:101C8000FEF7C8FF0299401AB0420BD9032003B0F7
:101C9000F0BD2868800353D56068002850D101202A
:101CA00003B0F0BD28688003EAD4606801281CD026
:101CB00000281ED0052825D02868B8432860296848
:101CC00001208004814329606068002827D0FEF746
:101CD000A1FF07462868800332D4FEF79BFFC01B94
:101CE000B04218D9032003B0F0BD286838432860FB
:101CF000EAE72868B84328602868012189048843F6
:101D00002860E1E7286801218904084328602868E1
:101D100038432860D8E728688003DED510E0FEF756
:101D200079FF0746286880030AD5FEF773FFC01BBA
:101D3000B04202D9032003B0F0BD28688003F4D478
:101D4000207801278007002854DA68680007800F90
:101D50001ED068680007800F022804D16868C0039D
:101D6000800F012814D0E06800282DD0286838435F
:101D70002860FEF74FFF0290286880071CD4FEF70A
:101D800049FF0299401A642813D9032003B0F0BD1B
:101D90002868800705D5E068012802D0012003B03B
:101DA000F0BD2868F82188432169C90008432860EC
:101DB00020E028688007E2D52868F8218843216957
:101DC000C9000843286015E02868400840002860E2
:101DD000FEF720FF0290286880070BD5FEF71AFF58
:101DE0000299401A642802D9032003B0F0BD286884
:101DF0008007F3D4207800072ED5206A002815D05C
:101E0000686A38436862FEF705FF0290686A8007D7
:101E100022D4FEF7FFFE0299401A642802D903205B
:101E200003B0F0BD686A8007F3D515E0686A400822
:101E300040006862FEF7EEFE0290686A80070BD5EC
:101E4000FEF7E8FE0299401A642802D9032003B085
:101E5000F0BD686A8007F3D42078400771D5E8693F
:101E6000012109070843E861E869084001907448C6
:101E700000680915084372490860FEF7CBFE02901E
:101E80006F480068C0050CD4FEF7C4FE0299401AE2
:101E9000642802D9032003B0F0BD69480068C0057A
:101EA000F2D5286A400840002862286A0421884345
:101EB0002862FEF7AFFE0290286A80070BD5FEF776
:101EC000A9FE0299401AB04202D9032003B0F0BD26
:101ED000286A8007F3D4A06801281DD000281FD0ED
:101EE000052826D0286A400840002862296A042074
:101EF00081432962A068002828D0FEF78BFE02905B
:101F0000286A800734D4FEF785FE0299401AB04251
:101F100018D9032003B0F0BD286A38432862E9E7E6
:101F2000286A400840002862296A04208143296207
:101F3000E0E7286A042108432862286A38432862B7
:101F4000D8E715E0286A8007DDD511E0FEF762FECC
:101F50000290286A80070BD5FEF75CFE0299401AB2
:101F6000B04202D9032003B0F0BD286A8007F3D441
:101F70002078C00649D56069012817D0401D35D0AA
:101F8000686B042108436863686B4008400068631D
:101F9000FEF740FE0646686B800736D5FEF73AFE30
:101FA000801B64282ED9032003B0F0BD686B042188
:101FB00008436863686B38436863FEF72BFE064688
:101FC000686B80070AD4FEF725FE801B642802D9BF
:101FD000032003B0F0BD686B8007F4D5686BF8216F
:101FE0008843A169C900084368630EE0696B042057
:101FF00081436963686BF8218843A169C90008437C
:10200000686302E0686B8007C8D4606A00285CD00F
:1020100069680907890F02295AD001263606022865
:1020200018D02868B0432860FEF7F4FD04462868FD
:1020300080014AD506E0000088130000001002402D
:1020400000700040FEF7E6FD001B64283AD903202B
:1020500003B0F0BD2868B0432860FEF7DBFD0746FB
:10206000286880010AD5FEF7D5FDC01B642802D977
:10207000032003B0F0BD28688001F4D4E86A216B26
:10208000000900010843E862A16AE06A0843696840
:102090007B22D2039143084368602868304328605C
:1020A000FEF7B8FD0446286880010ED4FEF7B2FDA5
:1020B000001B642802D9032003B0F0BD286880010A
:1020C000F4D502E028688001B4D4002003B0F0BD4C
:1020D000012003B0F0BD000004220549042803D00C
:1020E00008699043086170470869104308617047A8
:1020F00000E000E07047000010B40B49401E884229
:1021000002D910BC012070470849486108480723DC
:10211000C2691202120A4C042243C2610020886183
:102120000B6110BC70470000FFFFFF0000E000E003
:1021300004ED00E010B5FFF7DDFF10BD70477047FC
:1021400070B402462032137E012B1CD00124147679
:102150000223537603685D687026B5435D600368AB
:102160005D680E6835435D6003689D688026B543F1
:102170009D600068836849680B4383605476002043
:10218000107670BC704770BC0220704770B5044672
:10219000002C05D025462035687E002802D006E0B8
:1021A000012070BD00202876204600F00BF80220A8
:1021B0006876211D206800F0E9FE01206876002085
:1021C00070BD000000B587B00068174A17499042FB
:1021D00015D1C86902221043C861C8691040019036
:1021E0004020029003920020049005900120069068
:1021F000092002A9C006FEF75DFC07B000BD0C4A2D
:102200009042FAD1C86992151043C861C86910405C
:102210000190002211461320FEF74EFD1320FEF719
:1022200041FD07B000BD0000000400400010024066
:10223000002000400168CA6801231A43CA60006890
:1022400001681943016000207047F8B5044625462F
:102250002035287E012817D001272F7602206876A6
:10226000206882687726B243FF231B029A4382606C
:102270000868502838D00EDC20285DD006DC002805
:1022800050D0102861D152E00220F8BD302858D03B
:1022900040285AD13CE0602830D0702818D0012264
:1022A0001203801A0ED090424FD1CB684A688968D9
:1022B000206800F0B1FE206881680122920311437A
:1022C000816042E020688168C908C90081603CE003
:1022D000CB684A688968206800F09EFE20688168A3
:1022E000B1433143816030E0CA684968206800F03A
:1022F0009FFF5021206800F09BFE26E0CA684968D5
:10230000206800F0A7FF6021206800F091FE1CE02B
:10231000CA684968206800F08BFF4021206800F0FF
:1023200087FE12E00021206800F082FE0DE01021FF
:10233000206800F07DFE08E02021206800F078FE93
:1023400003E03021206800F073FE6F7600202876CD
:10235000F8BD704770B50446206801690025C9437F
:102360008907002916DBC168C943890712D4E91E11
:1023700001610120207620688069800703D0204613
:10238000FFF7E7FF05E0204600F099F8204600F04F
:1023900022F9257620680169C943490718D4C16824
:1023A000C943490714D40421C9430161022020769E
:1023B000206880698005800F03D02046FFF7C9FFA1
:1023C00005E0204600F07BF8204600F004F9257671
:1023D00020680169C943090717D4C168C9430907BF
:1023E00013D40821C9430161042020762068C06904
:1023F000800703D02046FFF7ACFF05E0204600F041
:102400005EF8204600F0E7F8257620680169C943A8
:10241000C90618D4C168C943C90614D41021C943D8
:102420000161082020762068C0698005800F03D0F4
:102430002046FFF78EFF05E0204600F040F82046DA
:1024400000F0C9F8257620680169C943C90708D199
:10245000C168C943C90704D1891E0161204600F043
:1024600013F920680169C943090609D4C168C94341
:10247000090605D48021C94301612046FFF75EFEAD
:1024800020680169C943490609D4C168C94349069E
:1024900005D44021C9430161204600F0FFF82068BF
:1024A0000169C943890609D4C168C943890605D4AD
:1024B0002021C94301612046FFF741FE70BD7047EE
:1024C000F8B504460E4625462035287E01280DD055
:1024D00001202876022068760427002A08D0042AE2
:1024E00019D0082A2DD00C2A54D13DE00220F8BD85
:1024F0003146206800F0A4FD20688169082211435C
:10250000816120688169B94381612068816932698C
:10251000114381613EE03146206800F0D1FD206822
:1025200081690122D20211438161206881695210C0
:10253000914381612068816932691202114381618E
:1025400028E03146206800F0FDFD2068C1690822BE
:102550001143C1612068C169B943C1612068C16983
:1025600032691143C16115E03146206800F02AFE4E
:102570002068C1690122D2021143C1612068C26989
:10258000012189028A43C2612068C169326912024D
:102590001143C1610120687600202876F8BD70B52E
:1025A0000446002C05D025462035687E002802D040
:1025B00006E0012070BD00202876204600F00AF8D1
:1025C00002206876211D206800F0E0FC012068767A
:1025D000002070BD7047704710B504460122206886
:1025E00000F00EFD0A482168814205D00948814269
:1025F00002D00948814204D1486C0122D203104321
:10260000486420680168012211430160002010BD68
:10261000002C0140004401400048014030B5044610
:102620000022206800F0ECFC144A13482168931043
:10263000814205D01248814202D0124881420AD11B
:10264000086A104207D1086A184204D1486C012573
:10265000ED03A84348642068016A114206D1016A6B
:10266000194203D101684908490001600120203462
:102670006076002030BD0000002C014011110000E8
:10268000004401400048014010B5006802498842FA
:1026900001D100F03DF910BD00200040704700005E
:1026A000F0B587B020484269012189050A4342619B
:1026B00042690A400192426949110A4342614269F2
:1026C0000A400192426949000A4342614069084058
:1026D000019001260296039600240494059409278C
:1026E000FF0602A93846FEF7E5F903940225049592
:1026F000029502A93846FEF7DDF90420029002A9EE
:102700003846FEF7D7F90820029002A93846FEF7AE
:10271000D1F9029503960494059402A90348FEF7A3
:10272000C9F907B0F0BD00000010024000040048E5
:1027300010B50A4808490160032141600021816009
:10274000074AC2600161FFF721FD002211461320F4
:10275000FEF7B2FA10BD000000200040BC020020CD
:10276000DF2E000010B58EB01548144901603021ED
:102770004160002484607D21C900C1600461FFF7CD
:1027800005FD012000030A900AA90D48FFF75DFD31
:102790000B48FFF704FF0894099408A90848FFF7BD
:1027A000CFFC60200190FA2002900394059400224F
:1027B00001A90348FFF784FE0EB010BD00040040DD
:1027C0008002002010B500220749084801F092F865
:1027D0000749064801F076FA0649044800F030FE41
:1027E000024801F01EFB10BD6001002038060020E9
:1027F000E0000020480100200021074A8B00D35C44
:10280000834203D18800801840887047491C3729CB
:10281000F4D302487047000048520008FFFF000050
:1028200010B50248FFF706FD10BD0000BC020020F5
:1028300010B507480078002801D0012400E00024EA
:10284000002C03D000F01CF900F00CF9204610BD5C
:10285000F802002010B50B48417F00290AD0007F04
:10286000012801D0012200E0002209200121C00638
:10287000FEF7C9F90448C07B002802D00120FDF70B
:102880004DFE10BD5C0200201C02002010B50B485C
:10289000417F00290AD0007F012801D0012200E0F9
:1028A000002209200121C006FEF7ADF90448C07BD3
:1028B000002802D00120FDF731FE10BD5C0200208F
:1028C0001C02002010B50848007F012809D0002212
:1028D00009200121C006FEF796F90020FDF71EFE33
:1028E00010BD0122F4E700005C02002010B40023B8
:1028F0000021064A8C00145D844200D10123491C4A
:102900003729F7D310BC184670470000485200081A
:10291000F8B5504D2878002815D06968491C6960C1
:10292000AA6991420FD900266E60A9688918A9602A
:102930000127494C012807D002283AD003284AD061
:1029400004287DD02E70F8BDAF61FFF7BBFF28696A
:10295000015D3C2902D03E2904D007E0AF77401C3E
:10296000286103E00321A977401C28612046FDF778
:1029700015FC024628690421824201D82970F8BD5D
:10298000005D202813D0FFF737FFA88302460121FE
:10299000C9036961084204D06869411069610A424B
:1029A000FAD168694010686102202870F8BD29706A
:1029B000F8BDA98B686901422848006D05D0410027
:1029C0004018A861FFF746FF02E0A861FFF75EFF2D
:1029D00003202870F8BDFFF775FF204A106DA8612D
:1029E000696949106961002902D002202870F8BD88
:1029F0002969491C2961095D002904D0A97F484340
:102A0000A8612F70F8BDE968491CE960144B1B8B65
:102A1000002B03D0994201DB2E70F8BD516D7D2251
:102A2000D2005143AA68914203D9881AA861F8BD1F
:102A300006E02E61AE602F70C100081AA861F8BDD3
:102A4000FFF740FF0548006DC100081AA861032088
:102A50002870F8BDF80200202C0200201C02002083
:102A60005C0200200548002101618161C160416074
:102A7000816001210170032181777047F8020020F5
:102A800010B50020FDF74AFD0748007F012809D056
:102A9000002209200121C006FEF7B5F803490020F5
:102AA000087010BD0122F4E75C020020F80200204B
:102AB000F0B587B00446002100912068403080883E
:102AC000019000047ED5204628300690E030059025
:102AD000E430049020462030039068468088070741
:102AE0003F0F002F2DD0B90020680291415A00916C
:102AF0006A461188090466D50299415AC44A1140B0
:102B0000029A81521C2078430519FF350935A87AAD
:102B100000287DD0297820688A00825A520478D50E
:102B20005022125ACB00BB4912185918515A8E051F
:102B3000B60D002E6ED0EA883346296900F07AF986
:102B4000C8E068468088C0062AD420680188B24A56
:102B500011400180069D20685021095A09182878E3
:102B6000C200AC481018085A8005800DA861296978
:102B70000818286100212046FEF7DEF80398007946
:102B800000287DD0686900287AD1039800798021D7
:102B9000084321684031888103990020087128E1A9
:102BA000059D2068018800916A46118809051BD59A
:102BB0005021095A09182878C20098481018085A54
:102BC000830501E01CE1A3E09B0DAB61AA882068AE
:102BD000049900F02FF9206801888D4A1140018086
:102BE0002046FEF72FFE04E169460988090447D50F
:102BF0000188874A1140018020685021095A874E78
:102C000008182978C9008919405A8005800D02E00A
:102C10003DE04FE05EE0A861002809D083B2AA88B9
:102C20002969206800F006F9A96928694018286117
:102C300000212046FEF78CF820685021095A081818
:102C40008219E8683E280BD9C102090CC00601D1DF
:102C5000491E89B288020121C9030843108007E098
:102C6000C103090CC00701D0491C89B28802108039
:102C7000206801886A4A114001221203514000E095
:102C8000B7E052005140674A11430180B1E020682B
:102C90005021095A0A182978CB0060495918515A0D
:102CA0008E05B60D002E1ED0AA883346296900F085
:102CB000C1F818E05022125ACB005849121859187E
:102CC000515A8E05B60D002E04D02A893346296943
:102CD00000F0B0F8297820688900425A524B1A4017
:102CE000524B1A434252A8698019A8612869821977
:102CF0002A616B69002B02D0E868B04204D92978B8
:102D00002046FEF725F803E029782046FEF7C6FAAC
:102D10006846008800066CD51C2047433D192835BD
:102D200020680299415A3C4A1140029A8152A87A7D
:102D3000002818D0297820688A00825A520627D5A0
:102D40005022125AC900121832480818105A800529
:102D5000800DA86100282DD083B2EA8829692068F7
:102D600000F078F826E020685021095A09182878E0
:102D7000C20028481018085A8005800DA861002854
:102D800021D083B2AA882969206800F063F81AE08C
:102D90005022125AC900121820480818105A8005EB
:102DA000800DA861002805D083B22A89296920688E
:102DB00000F050F8297820688900425A1A4B1A40CE
:102DC0001B4B1A43425220685021095A091828788F
:102DD000C20010481018085A8005800DA8612969A2
:102DE0000A182A616B69002B0DD029782046FEF75E
:102DF00031FB2068403080880190000400D56CE6EB
:102E0000002007B0F0BD29782046FDF795FFF0E7D8
:102E10008F0F0000020400000F8F00000604000066
:102E20008FBF0000808000008F8F0000C0800000F6
:102E300080C000005B1C5B08101801229202801801
:102E4000002B06D002880A80801C891C5B1E002B88
:102E5000F8D1704710B45B1C5B0810180122920275
:102E60008018002B0AD00C78491C0A7812022243E1
:102E70000280801C491C5B1E002BF4D110BC7047E3
:102E800010B5FDF7CDFEFFF755F910BD70B598B040
:102E900001240A940B940D94022613962004149096
:102EA00000011590002516950AA8FEF7C3FE0694AA
:102EB000079608950995012106A8FEF75DFD6004B7
:102EC00001908020059001A8FEF7E4FCFEF754FE77
:102ED0007D21C900FDF70CF9FFF70EF90420FFF77B
:102EE000FBF800221146501EFDF7E6FE18B070BD3B
:102EF000154801680122114301604168134A1140DD
:102F000041600168124A1140016001680122920487
:102F10009143016041683F22120491434160C16ABC
:102F200009090901C162016BFF22943291430163D7
:102F3000016B802211430163416B490849004163E1
:102F40000021816070470000001002400CB8FF08AB
:102F5000FFFFF6FE10B5FDF783FC01280BD1094CED
:102F6000092022781021C006FDF74DFE20780028A8
:102F700005D0002020700448FFF7ECF910BD0120B7
:102F80002070F8E738010020BC02002070B402680D
:102F9000164C174EA04201D0B04204D17025134602
:102FA000AB434A681A43134B134DA04208D0B042BA
:102FB00006D0124EB04203D0984201D0A84204D1AC
:102FC00003263602B243CE68324302608A68C26288
:102FD0000A688262A04203D0984201D0A84201D17F
:102FE000096901630121416170BC7047002C0140F7
:102FF000000400400044014000480140002000401F
:1030000010B401238B40046A9C430462036A8A4023
:103010001343036210BC704730B48468FF252D024F
:10302000AC431B0213430B432343836030BC704704
:10303000826870239A430A4307210A4382607047DB
:10304000F0B4026A520852000262056A436882695B
:103050007024A243920892000C6814430222954304
:103060008A682A43134E144FB04204D0B84202D0AB
:10307000124DA84206D10825AA43CD681543042263
:1030800095432A46B04204D0B84202D00B4DA84224
:1030900008D1FF250135AB436D00AB434D691D439E
:1030A0008B692B4343608461496841630262F0BCD1
:1030B00070470000002C01400044014000480140DE
:1030C000F0B4026A10239A430262046A4368826978
:1030D00007252D03AA4303252D02AA430D682D02BF
:1030E0001543202294438A6812012243124EB042B3
:1030F00007D180271446BC43CA68120122434024EA
:10310000A243B04205D00D4CA04202D00C4CA042CC
:103110000AD10124A402A3436400A3434C69A40080
:103120001C438B699B00234343608561496881632D
:103130000262F0BC70470000002C014000440140D6
:1031400000480140F0B4026AFF2301339A4302624F
:10315000046A4368C2697025AA43920892000D6808
:1031600015430122520294438A6812022243124EEE
:10317000B04207D1C7141446BC43CA6812022243A6
:103180000415A243B04205D00C4CA04202D00C4C16
:10319000A0420AD101242403A3436400A3434C6941
:1031A00024011C438B691B0123434360C5614968AB
:1031B000C1630262F0BC7047002C01400044014032
:1031C0000048014070B4026A01231B039A43026263
:1031D000046A4268C36907252D03AB4303252D020A
:1031E000AB430D682D021D4301235B039C438B6899
:1031F0001E0326430B4B984205D00B4B984202D03E
:103200000A4B984206D10124A4031346A3434A69FA
:1032100092011A434260C56149680164066270BC4C
:1032200070470000002C014000440140004801406C
:1032300030B4036A046A6408640004628469F02597
:10324000AC43120122430A24A3430B43826103626D
:1032500030BC704730B4036A1024A343036283690F
:10326000046A0F252D03AB4312031A43A0239C438A
:10327000090121438261016230BC7047FF30FF3099
:1032800002308069002806D0FF300021FF30023074
:103290004161002070470220704770B5C51DFF35A1
:1032A000FA35AC6900F0F4FBE21DFF32FA32D0606F
:1032B000A869002808D0E9695068CA688321890094
:1032C00061189047002070BD022070BD70B50446A3
:1032D00000258121204600F02FFB0121204600F02F
:1032E0002BFB8221204600F027FBFF34FF34023401
:1032F000A069002807D0E06940688047A06900F015
:1033000074FE0020A061284670BD10B5FF30FF306C
:1033100002308169C369002B0AD0CC1DFF34FA3416
:103320002078FF2804D09B6862789847FF2020709F
:10333000002010BD0A2101800048704708000020CD
:10334000432101800048704758000020432101803C
:103350000048704714000020432101800048704756
:103360009C000020F8B505460026287C01277F0236
:10337000002830D0402302228121284600F0E2FBC1
:10338000402302220121284600F0DCFB082303220F
:103390008221284600F0D6FB8720800000F026FE20
:1033A000E91DFF31FA318861002821D00446C8693F
:1033B00000688047FF340021FF3402346161A1615D
:1033C000287C002816D0402301212846626800F09E
:1033D000C5FB3046F8BD3B4602228121284600F05D
:1033E000B1FB3B4602220121284600F0ABFBCDE7B2
:1033F0000126EEE73B4601212846626800F0AEFB5D
:10340000E7E710B54321C9000958002916D0027C0E
:10341000002A09D0FF31FF3102314A6840230121DF
:1034200000F09CFB002010BDFF31FF310231012371
:103430004A685B02012100F091FBF3E7022010BD16
:1034400002460220002904D0FF32FF320232D1614D
:1034500000207047FF30FF3002308069FF30FF30BE
:103460000230416000207047FF30FF300230806939
:10347000FF30FF30023081600261002070470000A1
:10348000F8B507460C46FD1DFF35FA35AE692078C4
:1034900060220146104025D020282BD1E288002A46
:1034A00019D008060AD5E96960788B6831469847D3
:1034B000E2883146384600F09BF81BE0F01DFF30F3
:1034C0006178FA300170A1794170E288314638465E
:1034D00000F070F80EE0E96960788B680022214600
:1034E000984707E060780A2804D10122024938464B
:1034F00000F07EF80020F8BD0400002010B5432144
:10350000C9000958002911D0FF31FF3102314A6941
:10351000002A01D0012010BD01224A610A8A93B21B
:103520008A68812100F0B1FB002010BD022010BD8F
:1035300010B5034685208000C2581846526890474F
:10354000002010BD70B50546FF20FD30425D022A07
:1035500005D0032A03D0284600F021F870BD488822
:103560000128FBD1EC1D0020FF34FA346060606953
:10357000826828469047284600F048F870BD10B58C
:1035800013460A46002100F0E9FA002010BD10B5EC
:1035900013460A46002100F078FB002010BD10B54C
:1035A00004468021204600F056FB0021204600F012
:1035B00052FB10BD10B50324FF23F5331C50C41D6E
:1035C000F934A260E26013460A46002100F0C6FA10
:1035D000002010BD10B504460521FF20F530015133
:1035E00000231A461946204600F0B8FA002010BD04
:1035F00010B50224FF23F5331C508261C2611346CB
:103600000A46002100F041FB002010BD10B5044621
:103610000421FF20F530015100231A4619462046A7
:1036200000F033FB002010BD10B50A46024903A08C
:1036300000F040F9004810BD9C0C0020434443209A
:10364000436F6E666967000012200880004870476B
:103650008001002010B50A46024903A000F02AF9B3
:10366000004810BD9C0C002043444320496E746503
:10367000726661636500000004200880004870479E
:103680007C01002010B50A46024903A000F012F99F
:10369000004810BD9C0C002053544D6963726F6547
:1036A0006C656374726F6E696373000010B50A46CF
:1036B000024903A000F0FEF8004810BD9C0C002059
:1036C00053544D3332205669727475616C20436FC8
:1036D0006D506F727400000010B50A46024903A0D5
:1036E00000F0E8F8004810BD9C0C0020303030306D
:1036F00030303030303031410000000010B5CA8821
:10370000012A02D0FFF74BFF10BDFF22FD32125CF1
:10371000022A04D0032A0AD0FFF741FF10BD00217E
:103720008160014601220831FFF762FF10BD0122CE
:10373000011DFFF75DFF10BDF8B505460E46708808
:10374000EC1DFF34010AFA34082971D20A007A44C8
:1037500012799218974483030A1C83835664216963
:10376000287C0A6869469047014669E0287C022760
:10377000002806D06069C16A6846884701464F70D4
:103780005EE06069816A6846884701464F7057E08D
:10379000C0B2062831D201007944097949188F4412
:1037A000020910171E252169287C4A68694690473E
:1037B000014645E02169287C8A68694690470146B0
:1037C0003EE02169287CCA6869469047014637E097
:1037D0002169287C0A6969469047014630E02169E1
:1037E000287C4A6969469047014629E02169287C7E
:1037F0008A6969469047014622E031462846FFF72C
:10380000CEFEF8BD287C002804D031462846FFF7BC
:10381000C6FEF8BD6069416B6846884701460FE007
:10382000287C002805D031462846FFF7B8FEF8BDB1
:1038300015E06069016B68468847014607224A70B7
:10384000684600880028F2D0F288002AEFD0824231
:1038500000D9024600922846FFF7CAFEF8BD31465D
:103860002846FFF79CFEF8BD00210278002A05D00B
:10387000491CC9B2401C0278002AF9D10846704799
:1038800010B5FF22FD32125C022A04D0032A02D0B6
:10389000FFF785FE10BD0121C16081218900095813
:1038A000002901D00321C160014602220C31FFF73B
:1038B0009FFE10BD70B504460D461646002C18D06C
:1038C0002046FFF7D1FF4000801C30802870032184
:1038D00002206970217800290BD000222378411C36
:1038E000C9B22B54641C481CC0B26A542178002908
:1038F000F4D170BD10B5002813D0C31DFF33FA33C7
:103900005C69002C01D000245C61002900D01961A1
:103910000123FF21FD310B54027000F0C1F800209B
:1039200010BD022010BDFF3010B5FF300230006A1C
:10393000FDF7DCFA002010BDFF3010B5FF3002307B
:10394000006AFDF713FA002010BDF0B506460846E0
:1039500083B011463746FF37E1373C462034002814
:1039600007D061694A69002A54D0397F03294ED0B3
:1039700050E0354614353046FF3081300290406FBC
:1039800002283BD1AA68E868019082420DD90198CB
:10399000101AA86082B23046FFF7F9FD00231A46DC
:1039A0001946304600F0DAF828E06D68019928469B
:1039B000FCF79EFB002915D10198854212D302988D
:1039C000806F85420ED2002211463046FFF7DFFDA0
:1039D00002990020886700231A461946304600F0F5
:1039E000BDF80BE06069C168002904D0387F032866
:1039F00001D1304688473046FFF7ECFD207801289A
:103A000008D1304600F069F90020207002E001463C
:103A100030469047002003B0F0BD70B50C46054617
:103A200011462846FF30E13003462033002C07D0F2
:103A300059698A69002A29D0007F032823D025E00C
:103A4000EC1DFD34FF22F5325259032A1ED1E668DF
:103A5000A268B2420AD9901BA060E268904200D3EB
:103A6000104682B22846FFF78AFD0FE059690969BE
:103A7000002904D0007F032801D128468847284622
:103A8000FFF7C4FD02E0214628469047002070BDA4
:103A9000FF3010B5FF300230006AFDF78DFA10BD1F
:103AA00010B51C49C41DC861FF341B49FA341B48BA
:103AB00021620860022205208A60486003200A61B2
:103AC000C8600020886108620846FDF70EFE0022EB
:103AD00018231146206AFDF711F95823002280218E
:103AE000206AFDF70BF9C02300228121206AFDF72F
:103AF00005F9FF23113300220121206AFDF7FEF8AA
:103B0000FF23013300228221206AFDF7F7F800200D
:103B100010BD00007C0C00207C0A0020005C0040EE
:103B2000FF30CA09FF3049060230490E1C23006AE3
:103B300059430818002A01D0203001E0FF3001303D
:103B4000807A704710B5FF301C46FF3002301346B4
:103B5000006A2246FDF73AFA002010BDFF3010B58A
:103B6000FF300230006AFDF799FB002010BD70B5F0
:103B700004460022402311462046FFF7E3FF40257C
:103B8000FF20113005514023002280212046FFF7FD
:103B9000D9FF25620121FF20FD300155E01DFF30D6
:103BA000FA308169002904D04069217942682046B1
:103BB0009047002070BDFF30E130417F0177002049
:103BC000704710B5FF21FD31095C032906D185211D
:103BD00089000958C969002900D08847002010BD14
:103BE000017400207047FF3010B5FF300230006ACA
:103BF000FDF712FE002010BD70B505464120C00043
:103C00002818044600F04AF828460122FF30813087
:103C1000014642678030C2898A67017AC806C00EB1
:103C20000AD001280DD0022810D0C909C9012846A0
:103C300000F011F8002070BD2146284600F0F6F88B
:103C4000F8E72146284600F0ACF9F3E7214628467C
:103C500000F014F9EEE7FF3010B5FF300230006AD3
:103C6000FDF7AAFB002010BDFF3010B5FF30023079
:103C7000006AFDF7F2FD002010BDFF30E130017F4A
:103C800041770421017700207047FF3010B5FF30E5
:103C90000230006AFDF7DEFB002010BD0A780270DA
:103CA0004A784270CB788A781B02D21842804B79CE
:103CB0000A791B02D21882808A79C97909025118BF
:103CC000C180704702460020002904D0FF32FF3235
:103CD000023251617047022070470020704770B572
:103CE00006468888002802D1C888002803D03046BC
:103CF000FFF755FC70BD887845066D0E3446FF34DD
:103D0000E134207F03280CD0A57729463046FFF701
:103D10006AFF3046FFF77AFC002D06D0022020779C
:103D200070BD3046FFF73BFC70BD0120207770BDB1
:103D300010B50224852292001258002A04D012687D
:103D40009047002800D10024204610BD70B50446DD
:103D50000D462A4EA9783170012904D929462046FA
:103D6000FFF71DFC70BD2046FF30E130027F022AC4
:103D700006D0032A1BD029462046FFF710FC70BD51
:103D8000002910D06160032202772046FFF7D0FFA0
:103D9000022803D02046FFF739FC70BD2946204693
:103DA000FFF7FDFB70BD2046FFF730FC70BD00291A
:103DB00011D0606888421DD0C1B22046FFF7B8FB21
:103DC000317861602046FFF7B3FF02280DD020460E
:103DD000FFF71CFC70BD0222027761602046FFF7EE
:103DE000A7FB2046FFF712FC70BD29462046FFF7CF
:103DF000D6FB70BD2046FFF709FC70BD0000002017
:103E000010B50446488801280AD1E21DFF32FA3273
:103E1000506050698268204690472046FFF7F6FBC5
:103E200010BD10B5FFF720FF002010BD10B5002415
:103E30004A780A2A1ED213007B441B79DB189F4460
:103E400010161913190704190D0AFFF775FC13E072
:103E5000FFF745FF10E0FFF779FF0DE0FFF74EFC9D
:103E60000AE0FFF70DFD07E0FFF7CAFF04E0FFF7E8
:103E700069FB01E0FFF793FB204610BDF8B505464E
:103E80000C46002721792078EE1D4006FF36800F72
:103E9000FA36012809D0627830462038002A53D0FB
:103EA000012A2ED0032A58D106E070692146826883
:103EB000284690470020F8BD007F022806D003283E
:103EC0000CD021462846FFF76AFB46E0002944D083
:103ED000802942D02846FFF7BEFE3EE060880028D9
:103EE00006D1002904D0802902D02846FFF7B3FE6E
:103EF000706921468268284690472846FFF786FB6E
:103F00002BE0007F022806D003280CD0214628464B
:103F1000FFF745FB21E000291FD080291DD028464E
:103F2000FFF799FE19E06088002816D1480607D0EF
:103F30002846FFF7F8FC70692146826828469047BA
:103F40002846FFF763FB08E0007F022807D003281C
:103F50000BD021462846FFF722FB3846F8BD48061D
:103F6000FBD02846FFF777FEF7E7C80904D04806DC
:103F7000400D4419143404E04806400D4419FF3440
:103F800005342846FFF7CCFD002802D00120206030
:103F900001E000202060022221462846FFF728FB8E
:103FA000DBE770B504460D46FF20FD30005D0328B9
:103FB00005D029462046FFF7F2FA002070BD287987
:103FC00001280DD8852080000059294682682046A6
:103FD0009047E8880028F0D12046FFF717FBECE770
:103FE00029462046FFF7DBFAE7E7704700487047AD
:103FF0005C08002010B50248FDF7FAFA10BD000079
:104000007C0A0020F3B5184E81B0307F0D4603289E
:1040100014D1164F3868002807D0A9B20198FCF7D0
:10402000C7FA00280AD1386015E0FCF7F3FD044612
:10403000FF34F53411E0307F032801D00020FEBDAD
:10404000A9B20198FCF7B4FA002804D0012804D0E2
:104050000020C043FEBD2846FEBDFCF7DBFDA042AC
:10406000E9D301203860E9E7180800205801002052
:104070000FB41CB50A46521E0192009007A9064BC8
:104080006A46069800F01EF8009A002111701CBCC8
:1040900008BC04B0184700003945000800487047C4
:1040A0009401002002E008C8121F08C1002AFAD1BA
:1040B00070477047002001E001C1121F002AFBD1A8
:1040C00070470000FFB591B00F460546002606E098
:1040D00025280AD0149A139990476D1C761C2878CD
:1040E0000028F5D1304615B0F0BD00240094012120
:1040F000F34A029400E004436D1C2B780846203BF1
:1041000098401042F7D128782A280ED0022128782A
:104110000246303A092A15D8009A0A235A43303AFF
:1041200080180C436D1C0090F1E701CF009000282F
:1041300005DA012040030443009840420090022029
:1041400004436D1C28782E2815D104200443687878
:104150006D1C2A280AD101CF6D1C02900BE0029938
:104160000A225143303940186D1C029028780146CC
:1041700030390929F3D928786C2810D006DC4C286E
:104180001AD068280ED06A2817D104E0742813D0FA
:104190007A2812D110E00120400504430CE00121EF
:1041A000090501E0032109050C436978814203D127
:1041B0000120000524186D1C6D1C287803906E28C2
:1041C0001ED00CDC632831D004DC00288AD05828AB
:1041D00011D1B2E064287BD069280CD178E0732833
:1041E0002DD004DC6F2870D0702804D1A7E075288A
:1041F0006CD078286BD0149A13999047761C62E0A3
:104200006002400F022807D003280AD0042838682B
:104210000AD006603F1D56E03868F117066041601D
:10422000F8E738680680F5E70670F3E738786946FE
:1042300008740020487404A80390012003E0386843
:1042400003900020C0433F1D61070FD5002101E00E
:104250000199491C029A0191914213DA8142F7DBDC
:10426000019A0399895C0029F2D10BE0002101E059
:104270000199491C01918142FADB019A0399895CF9
:104280000029F5D101990098139A401A009021460F
:10429000149B00F03BF901998019461807E0039838
:1042A00003990078491C0391149A13999047019837
:1042B000401E0190401CF2D12146149B139A009895
:1042C00000F014F986196D1C09E741E033E034E091
:1042D0000A200021049005916002410F022905D0B7
:1042E00001CFC2179446032905D007E0FF1DFF0840
:1042F000FF0003CF06E000B2C2179446042902D1A2
:1043000040B2C1178C4600226146944506DA0A463F
:104310000021404291418C462D2102E0210504D527
:104320002B216A461176012103E0E10701D020210B
:10433000F7E7019154E00A200BE0102009E010207B
:10434000049000210420044308200591029003E01A
:1043500008200021059104906002410F022905D038
:1043600001CF00229446032906D006E0FF1DFF0876
:10437000FF0003CF8C4603E080B2042900D1C0B215
:104380000021019121072BD50399702906D0049AA9
:104390001021059B4A401A4305D00EE040216A4691
:1043A0001176012108E06146014306D030216A46BA
:1043B00011760399517602210191049A0821059BF7
:1043C0004A401A430CD16146014301D1610707D528
:1043D00030216A461176012101910299491E02910C
:1043E0000399582904D037A103910FA90F910DE02B
:1043F00039A1F9E76146059B049AFBF7FAFE039B96
:104400008C469B5C0F9A521E0F92137061460143BB
:10441000F0D10F9807A9081A20300390600704D53F
:10442000012000048443029801E0012002900399D6
:10443000884201DD401A00E00020411802900198F6
:1044400009180098401A0090E00306D42146149BF6
:10445000139A009800F05AF886190020049008E09A
:1044600006A9085C149A139990470498401C761C7E
:10447000049001998842F3DBE0030CD52146149B9C
:10448000139A009800F042F8861904E0149A30203C
:1044900013999047761C0299481E02900029F5DC7A
:1044A00008E00F980F990078491C0F91149A1399FE
:1044B0009047761C0399481E03900029F1DCFBE627
:1044C00009280100303132333435363738396162EA
:1044D00063646566000000003031323334353637AE
:1044E000383941424344454600000000F8B50446CF
:1044F00000251E461746880404D405E039462020CE
:10450000B0476D1C641EF9D52846F8BDFFB50446BA
:10451000002581B01E46C80301D5302700E02027C2
:10452000880404D505E038460399B0476D1C641E25
:10453000F9D5284605B0F0BD4A68002A06D00A68B9
:10454000531C0B6010704868401E486070470000A4
:1045500002480021017041607047000030010020D6
:1045600070B59EB0064620213046FBF70DFE04468E
:104570000025002C05D0611C16A8FBF724FE257031
:1045800001E044203070384C3078264610364628FA
:104590004AD02CDC43285AD0442826D1A37A33A20F
:1045A000202116A8FFF764FD16A8FBF7F7FD0146CA
:1045B00016A8FFF727FDA38932A2202116A8FFF72E
:1045C00057FD16A8FBF7EAFD014616A8FFF71AFDEE
:1045D000E37B33A2202116A8FFF74AFD16A8FBF7BC
:1045E000DDFD014616A8FFF70DFD1EB070BD522877
:1045F00012D05628F9D116A8FBF7EEFD411E63290B
:1046000000D8A072542231466846FBF79EFD0FCCBD
:10461000FBF70CFF1EB070BD16A8FBF7DDFDC0B2A6
:10462000FBF77CFF1EB070BD16A8FBF7D5FD014659
:104630001F4A6539914200D2A08154223146684612
:10464000FBF783FD0FCCFBF7F1FE1EB070BD16A883
:10465000FBF7C2FD002803DD0120E0731EB070BD32
:10466000E5731EB070BD00001C0200204175646936
:104670006F2E566F6C756D65203D20256425250ACB
:104680000D000000417564696F2E46726571756595
:104690006E6379203D202564487A0A0D00000000F1
:1046A000417564696F2E4357203D2025640A0D0033
:1046B000AB26000010B5401E642148430449642223
:1046C00041180448FBF741FDFEF7CCF910BD00008E
:1046D000007C00081C020020F0B589B000241D4DAC
:1046E000631C1DA220216846FFF7C2FC6846FBF749
:1046F00055FD01466846FFF785FC20466421484386
:104700002E5C40190746FBF749FD002805D0FF2E17
:1047100003D03846FBF75AFF0BE011A22021684670
:10472000FFF7A6FC6846FBF739FD01466846FFF730
:1047300069FC0EA220216846FFF79AFC6846FBF749
:104740002DFD01466846FFF75DFC641C082CC7DBA5
:1047500009B0F0BD007C000825783A200000000078
:10476000203C456D7074793E200000000A0D000069
:1047700010B588B004462046FBF710FD002800D095
:104780000120002C01D0012100E00021084208D0C6
:104790002046FBF721FD012801D800F001FC08B0FC
:1047A00010BDFCF75DF8034606A220216846FFF71E
:1047B0005FFC6846FBF7F2FC01466846FFF722FC07
:1047C00008B010BD46544553543A2025640A0D00E4
:1047D00010B588B004462046FBF7E0FC002800D066
:1047E0000120002C01D0012200E00022104209D05B
:1047F000204600F08EFC082221460D48FBF7B7FC4E
:1048000008B010BD0A48FBF7C9FC01460848FFF78D
:10481000F9FB08A220216846FFF72AFC6846FBF74F
:10482000BDFC01466846FFF7EDFB08B010BD000077
:104830001C0200200A0D0000F8B50025ED430024FD
:104840002046642148430F490E5C40180746FBF799
:10485000A5FC002810D0FF2E0ED04037B87F0128CD
:1048600002D0022802D007E0651C08E000F030FC0E
:10487000A04201D1651C02E0641C082CE0DB284644
:10488000F8BD0000007C000810B588B00446204642
:10489000FBF784FC002800D00120002C01D001216E
:1048A00000E0002108422AD02046FBF795FC411E7B
:1048B000072924D8441E13486421134A61438918E8
:1048C0006422FBF742FC631C10A220216846FFF71C
:1048D000CFFB6846FBF762FC01466846FFF792FB98
:1048E0000848FBF773FE0CA220216846FFF7C0FBC7
:1048F0006846FBF753FC01466846FFF783FB08B0A8
:1049000010BD00001C020020007C00084C6F616498
:1049100065642025643A20000A0D000030B589B096
:10492000054620212846FBF72FFC0446002C06D024
:10493000611C6846FBF747FC0020207001E0442022
:1049400028702878274C44281DD04E280DD0532895
:1049500009D16846FBF740FC7D21C900224A411A73
:10496000914200D2206509B030BD6846FBF734FCA7
:10497000411E3C29F7D2322141431C48FBF7B8FBCA
:10498000206509B030BD1AA220216846236DFFF7CB
:104990006FFB6846FBF702FC01466846FFF732FBF7
:1049A0001AA220216846FFF763FB6846FBF7F6FB77
:1049B00001466846FFF726FB19480446FBF7EEFB65
:1049C00001462046FFF71EFB0FA220216846FFF795
:1049D0004FFB6846FBF7E2FB01466846FFF712FB18
:1049E00009B030BD1C020020B882010060EA00005E
:1049F00043576D6573736167652E446F7454696DB9
:104A000065203D2025646D730A0D000043576D65D8
:104A100073736167652E4D6573736167653A000056
:104A20002C020020F0B589B0054600240126284656
:104A3000FBF7B4FB002800D00120002D01D001219C
:104A400000E0002108401F4F002826D0284600F033
:104A500060FB12E0FDF74AFF00280DD100262B5D18
:104A600019A220216846FFF703FB6846FBF796FB77
:104A700001466846FFF7C6FA641C402C02DA285D3E
:104A80000028E7D1002E06D0402229463846FBF701
:104A90006EFBFDF7CDFE09B0F0BD3846FBF77EFB9F
:104AA00001463846FFF7AEFA0DA220216846FFF70F
:104AB000DFFA6846FBF772FB01466846FFF7A2FA89
:104AC00009B0F0BD2C020020496E76616C6964204B
:104AD000636861723A205B25635D210A0D00000066
:104AE0000A0D000070B588B0064620213046FBF75D
:104AF0004BFB04460025002C05D0611C6846FBF7E3
:104B000062FB257001E04420307030781B4C432854
:104B10000BD0442815D0502805D16846FBF75CFB24
:104B2000032800D8207708B070BD6846FBF754FB17
:104B3000002803DD0120607708B070BD657708B0FC
:104B400070BD237F0EA220216846FFF791FA6846C8
:104B5000FBF724FB01466846FFF754FA637F0DA27A
:104B600020216846FFF784FA6846FBF717FB0146E9
:104B70006846FFF747FA08B070BD00005C020020ED
:104B80004F75742E706F6C6172697479203D2025A9
:104B9000640A0D004F75742E4357203D2025640A8A
:104BA0000D00000070B5014640223548FBF7DFFAE2
:104BB000344800250570403800F0ABFA30480078E2
:104BC000002823D020212E48FBF7DEFA0446002CD3
:104BD00016D0611C2C48FBF7F6FA2570284800F027
:104BE000C7F90F2812D201007944097949188F4476
:104BF0000A0E12161A1D20282B3135243B3F430084
:104C000021480570EAE72048FFF7AAFC70BD1E485E
:104C1000FFF708FF70BD1C48FFF780FE70BD1A4803
:104C200000F034F870BD00F09BF870BD00F0B6F8ED
:104C300070BD1548FFF756FF70BD1348FFF7C8FD5C
:104C400070BDFFF749FD70BD012200210E4800F044
:104C5000A9F870BD0C48FFF717FE70BD0122114680
:104C6000094800F09FF870BD074800F07DF870BD5E
:104C70000548FFF77DFD70BD014800F06DF970BD7E
:104C800098010020D8010020D901002030B589B05A
:104C9000054620212846FBF777FA0446002C06D06B
:104CA000611C6846FBF78FFA0020207001E0442069
:104CB00028702878194D2C464034442812D04E28AC
:104CC0000AD0542806D16846FBF786FA1449884270
:104CD00000D8686509B030BD6846FBF77DFA2083CF
:104CE00009B030BD0FA2202168466B6DFFF7C0F9F7
:104CF0006846FBF753FA01466846FFF783F9238BB2
:104D00000FA220216846FFF7B3F96846FBF746FA81
:104D100001466846FFF776F909B030BD1C02002055
:104D200060EA000043576D6573736167652E7065B7
:104D300072696F64203D202564730A0D0000000035
:104D400043576D6573736167652E72657065617435
:104D5000203D2025642074696D65730A0D000000F4
:104D600010B5FDF77FFE10BD10B504462046FBF7D9
:104D700015FA002800D00120002C01D0012100E00C
:104D80000021084206D02046FBF726FA022801D867
:104D90000149887710BD00005C02002010B5FDF7C6
:104DA0006FFE10BDF7B5ACB004462046FBF7F6F930
:104DB000002800D00120002C01D0012100E00021BA
:104DC000084270D02046FBF707FA411E07296AD82F
:104DD000401E2190FBF7FAFD012020904D4C1F94BE
:104DE00000201E901DA91EA8FBF74CFD002701AD59
:104DF00038466421484348490446411864222846FD
:104E0000FBF7A3F9434826180024082229461AA8CC
:104E1000FBF79BF9314603201B9B1A9AFBF790FD89
:104E200008350836641C0C2CEFD37F1C082FDEDB02
:104E30002E9900290CD0034638A2202122A8FFF782
:104E400017F922A8FBF7AAF9014622A8FFF7DAF81A
:104E500001202090374C1F9400201E901DA91EA8F1
:104E6000FBF710FD00252199642251432246891841
:104E70002A9121998D4217D12D99012932D02E4F97
:104E80002A9E0024082239461AA8FBF75EF931460B
:104E900003201B9B1A9AFBF753FD08370836641C46
:104EA0000C2CEFD31EE032E001AE284664214843CB
:104EB00022490446411864223046FBF746F91D4852
:104EC00027180024082231461AA8FBF73EF9394674
:104ED00003201B9B1A9AFBF733FD08360837641C26
:104EE0000C2CEFD36D1C082DC3DB2E9900290CD0A0
:104EF000034613A2202122A8FFF7BAF822A8FBF745
:104F00004DF9014622A8FFF77DF8FBF70FFD2FB002
:104F1000F0BD000000780008007C00084261636B6F
:104F200075702E2E2E207374617475732025640A9B
:104F30000D000000007C00081C0200200078000822
:104F400057726974696E672E2E2E207374617475A2
:104F5000732025640A0D000010B50448FBF71EF904
:104F600001460248FFF74EF810BD0000345100081A
:104F700070B50646084C094DAC4208D2314620684F
:104F8000FBF713F9002804D00834AC42F6D30E2006
:104F900070BD606870BD0000D8510008485200081C
:104FA00070B586B009220026D2060C4D00280DDD12
:104FB000012402940396032004901020019001A97B
:104FC0001046FBF777FD2C7006B070BD102110461F
:104FD000FBF70EFD2E7006B070BD00002C01002006
:104FE000004870473803002004480178012901D0A7
:104FF000002070470021017001207047400100200F
:10500000FBF716FEFDF742FFFDF74AFB01220221E6
:105010001948FBF7F8FDFDF7A5FBFDF789FBFDF748
:10502000D1FBFDF7FDFBFFF707FC05467D26F600EB
:105030000127124CFFF7D8FF002803D0FFF7D0FF5D
:10504000FFF7B0FD0A20FBF711FC6068401C6060B0
:105050006068B042EEDD002DECDD2846FFF72AFB4C
:10506000277020780028E5D00A20FBF7FFFB207886
:105070000028F9D1DEE700000004004830010020DC
:1050800010B50446FFF764FA0F4A10490D2C04D0FE
:10509000082C07D07F2C05D000E00A24486814545F
:1050A000401C03E04868002803D0401E4860FF28E9
:1050B00001D00A2C07D14B680020D218203AD077B3
:1050C00048600120087010BD380300204001002016
:1050D00070B50926F60602213046FBF78DFD012842
:1050E00011D0002504213046FBF786FD01280CD0A5
:1050F00000242C4308213046FBF77EFD012806D012
:105100000020204370BD0125ECE70224F1E70420D4
:10511000F7E770B505462C462078002807D02078A0
:10512000FBF70DF82070641C20780028F7D1284682
:1051300070BD0000436F6D6D616E64733A0A0D209F
:1051400041554420562F522F462F432F440A0D20FD
:105150004D5347202E2E2E546578742E2E2E0A0D78
:10516000204D4F4445204E2F532F440A0D205250BE
:105170005420542F4E2F440A0D2052554E0A0D2014
:105180004F555420500A0D204341540A0D205354CA
:105190004F524520780A0D204C4F414420780A0D8B
:1051A0002044454C20780A0D204944202E2E2E54B0
:1051B0006578742E2E2E0A0D2053544F500A0D2060
:1051C000535441525420780A0D20465445535420DC
:1051D000307C310A0D0A0D00C853000800000000A1
:1051E000DC53000801000000CC530008020000005E
:1051F000F453000803000000E4530008040000001A
:105200000854000806000000E853000805000000EC
:10521000F053000807000000D45300080800000005
:10522000BC53000809000000E05300080A00000019
:10523000C45300080B000000F85300080C000000E5
:10524000005400080D0000004100F9FF4200E8FF93
:105250004300EAFF4400F4FF4500FCFF4600E2FF84
:105260004700F6FF4800E0FF4900F8FF4A00E7FF6B
:105270004B00F5FF4C00E4FF4D00FBFF4E00FAFF32
:105280004F00F7FF5000E6FF5100EDFF5200F2FF24
:105290005300F0FF5400FDFF5500F1FF5600E1FF01
:1052A0005700F3FF5800E9FF5900EBFF5A00ECFFED
:1052B0002000EFFF3000DFFF3100CFFF3200C7FFDB
:1052C0003300C3FF3400C1FF3500C0FF3600D0FFFC
:1052D0003700D8FF3800DCFF3900DEFF2E0095FFD5
:1052E0002C00B3FF3A00B8FF3F008CFF27009EFF61
:1052F0002D00A1FF2F00D2FF2800ADFF2900ADFF38
:105300007B00ADFF7D00ADFF5B00ADFF5D00ADFF3D
:10531000220092FF40009AFF3D00D1FF3C00FFFFBA
:105320003E00FFFF0000000001020304010203042D
:10533000060708090040404040404040404041418D
:10534000414141404040404040404040404040405A
:1053500040404040400502020202020202020202F4
:1053600002020202022020202020202020202002F1
:105370000202020202029090909090901010101081
:10538000101010101010101010101010101010101D
:1053900002020202020288888888888808080808B1
:1053A000080808080808080808080808080808087D
:1053B0000202020240000000355300084C4F4144F5
:1053C0000000000049440000415544004D4F444551
:1053D0000000000053544F52450000004D53470059
:1053E00044454C0052554E0053544F5000000000AD
:1053F0004341540052505400535441525400000051
:1054000046544553540000004F5554002C54000896
:105410000000002098010000D4030008F4540008A4
:105420009801002008150000B440000881130A0606
:1054300032023340011409024313020125C032092C
:10544000041B01020B130524161001052401100989
:10545000010424020205240617010705820308152A
:105460001009040133020A1D07050102432C070538
:1054700081070938442A40072A8107112B0907446C
:105480000A2204440A16FF441365331408CD32146B
:1054900008813442081A0B101A7D101A9B04C11A95
:1054A0004D181A41041A59041A35041193127A003E
:1054B000091C01020304060708091351051B084DC6
:1054C000041A49041A8104811349361B0879041A05
:1054D00085041AAD041AD9041A29041A55041E04A5
:1054E00003090412B7311E4083044057ED640203E0
:0454F00001000000B7
:020000040800F2
:107800000000000000000000000000000000000078
:107810000000000000000000000000000000000068
:107820000000000000000000000000000000000058
:107830000000000000000000000000000000000048
:020000040800F2
:04000005080000C12E
:00000001FF
